:020000040000FA
:100000000C948F000C94B7000C94B7000C94B700BC
:100010000C94B7000C94B7000C94B7000C94B70084
:100020000C94B7000C94B7000C94B7000C94B70074
:100030000C94B7000C94B7000C94B7000C94B70064
:100040000C9449040C94B7000C94B9040C949304D8
:100050000C94B7000C94B7000C94B7000C94B70044
:100060000C94B7000C94B70008000000BE9224491D
:10007000123EABAAAA2ABECDCCCC4C3E00000080DA
:10008000BEABAAAAAA3E00000000BF000000803F4D
:100090000000000000084178D3BB4387D1133D190D
:1000A0000E3CC3BD4282AD2B3E68EC8276BED98F3A
:1000B000E1A93E4C80EFFFBE01C4FF7F3F0000007E
:1000C000000000000000240027002A0000000000BB
:1000D000250028002B00000000080002010000039A
:1000E00004070000000000000000000000002300E2
:1000F0002600290004040404040404040202020289
:1001000002020303030303030102040810204080DA
:10011000010204081020010204081020EB0411243D
:100120001FBECFEFD8E0DEBFCDBF11E0A0E0B1E051
:10013000E6ECF6E102C005900D92A433B107D9F7C1
:1001400022E0A4E3B1E001C01D92A332B207E1F7BF
:1001500010E0CFE8D0E004C02197FE010E945B0BC5
:10016000CE38D107C9F70E948B050C94610B0C9413
:100170000000CF92DF92EF92FF92CF93DF93B09186
:100180001702A0E08111AB2F8091180290E0880F38
:10019000991FAC0146515F4FC0901D02D0901E02C6
:1001A000E0901F02F090200230E020E0FA01C591BB
:1001B000D491E881B90190E080E0EB23EA130AC012
:1001C0002F5F3F4F6C157D058E059F0578F36FEF10
:1001D0007FEFCB01DF91CF91FF90EF90DF90CF9039
:1001E0000895CF93DF9390E0FC01E85FFE4F2491E8
:1001F0008C509F4FFC0184918823D1F090E0880FB0
:10020000991FFC01EE53FF4FA591B491FC01E453FB
:10021000FF4FC591D491623071F49FB7F8943C912F
:10022000822F809583238C93E8812E2B28839FBF78
:10023000DF91CF9108958FB7F894EC912E2B2C93EA
:100240008FBFF6CF8E3008F08E5087708064809319
:100250007C0080917A00806480937A0080917A009B
:1002600086FDFCCF809178009091790008953FB78A
:10027000F8948091350190913601A0913701B091A9
:10028000380126B5A89B05C02F3F19F00196A11D86
:10029000B11D3FBFBA2FA92F982F8827BC01CD01D0
:1002A000620F711D811D911D42E0660F771F881F2F
:1002B000991F4A95D1F708958F929F92AF92BF925E
:1002C000CF92DF92EF92FF924B015C010E943701C7
:1002D0006B017C010E9437016C197D098E099F0911
:1002E000683E734081059105A8F321E0821A9108C8
:1002F000A108B10888EEC80E83E0D81EE11CF11CED
:1003000081149104A104B10429F7FF90EF90DF90CC
:10031000CF90BF90AF909F908F9008958F929F92B3
:10032000AF92BF92EF92FF920F931F93CF93DF9301
:10033000CDB7DEB7C054D1400FB6F894DEBF0FBEC4
:10034000CDBF2FB7F8948091390190913A01A091D7
:100350003B01B0913C012FBF4091190250911A020C
:1003600060911B0270911C028C019D01041B150BF6
:10037000260B370BB901A801403D574061057105B7
:10038000A0F480912102C05CDE4F0FB6F894DEBF6E
:100390000FBECDBFDF91CF911F910F91FF90EF90D6
:1003A000BF90AF909F908F90089580931902909383
:1003B0001A02A0931B02B0931C0210921402109216
:1003C000130210921202109211021092100262E0B7
:1003D000809115020E94F10061E070E080E090E001
:1003E0000E945C0161E0809115020E94F100809101
:1003F000150290E0FC01EA52FF4F2491FC01E85FF6
:10040000FE4F3491FC01EC50FF4FE491EE23D9F004
:10041000222359F0233009F44BC008F03EC02130AC
:1004200009F44CC0223009F44DC0F0E0EE0FFF1F7C
:10043000E453FF4FA591B4918FB7F894EC913095A8
:100440003E233C938FBF809116028551823008F085
:1004500046C08BE291E10197F1F762E080911502CD
:100460000E94F1008091220290E08230910538F0E4
:10047000880F991F880F991F05970197F1F7F89436
:1004800080E00E94B9006F3F7F4F8F4F9F4F71F503
:1004900010922102789480E076CF2730B1F0283096
:1004A000D1F0243009F0C1CF809180008F7D03C04E
:1004B000809180008F7780938000B7CF84B58F774D
:1004C00084BDB3CF84B58F7DFBCF8091B0008F7793
:1004D0008093B000AACF8091B0008F7DF9CF64E106
:1004E00070E080E090E00E945C01B7CF81E00E9464
:1004F000B9006F3F7F4F8F4F9F4F51F2CE01019652
:100500007C015E019FEBA91A9EEFB90A870180E08A
:100510000E94B900F801608371838283938381E034
:100520000E94B900F8016483758386839783085F0E
:100530001F4FA016B10659F7789430E020E0F7017C
:1005400080809180A280B3804481558166817781CB
:10055000FFEF8F169F06AF06BF0631F04F3F0FEF3C
:1005600050076007700719F41092210294CFF90127
:1005700083E0F595E7958A95E1F7E45FFD4F848187
:10058000880F84169506A606B70618F184832F5F98
:100590003F4F18E0E10EF11C2832310581F6409101
:1005A00014022091100280911102280F3327331F6B
:1005B00080911202280F311D80911302820F932F18
:1005C000911D99274817190679F681E08093210239
:1005D000DACE8160DBCFAF92BF92CF92DF92EF9203
:1005E000FF920F931F93CF93DF936C017B018B01DD
:1005F000040F151FEB015E01AE18BF08C017D1072D
:1006000059F06991D601ED91FC910190F081E02DB6
:10061000C6010995892B79F7C501DF91CF911F910B
:100620000F91FF90EF90DF90CF90BF90AF90089523
:10063000FC01538D448D252F30E0842F90E0821BE8
:10064000930B541710F0CF96089501970895FC016D
:10065000918D828D981761F0A28DAE0FBF2FB11DC5
:100660005D968C91928D9F5F9F73928F90E008951D
:100670008FEF9FEF0895FC01918D828D981731F0D7
:10068000828DE80FF11D858D90E008958FEF9FEF2B
:100690000895FC01918D228D892F90E0805C9F4F01
:1006A000821B91098F73992708958DE391E00E9431
:1006B000490321E0892B09F420E0822F089580E08E
:1006C00090E0892B29F00E94550381110C940000C1
:1006D0000895FC01A48DA80FB92FB11DA35ABF4FD7
:1006E0002C91848D90E001968F739927848FA68931
:1006F000B7892C93A089B1898C91837080648C9385
:10070000938D848D981306C00288F389E02D808133
:100710008F7D80830895EF92FF920F931F93CF9365
:10072000DF93EC0181E0888F9B8D8C8D98131AC02C
:10073000E889F989808185FF15C09FB7F894EE8913
:10074000FF896083E889F989808183708064808370
:100750009FBF81E090E0DF91CF911F910F91FF90BB
:10076000EF900895F62E0B8D10E00F5F1F4F0F7363
:100770001127E02E8C8D8E110CC00FB607FCFACF1E
:10078000E889F989808185FFF5CFCE010E94690350
:10079000F1CFEB8DEC0FFD2FF11DE35AFF4FF082EF
:1007A0009FB7F8940B8FEA89FB8980818062CFCF55
:1007B000CF93DF93EC01888D8823B9F0AA89BB8998
:1007C000E889F9898C9185FD03C0808186FD0DC083
:1007D0000FB607FCF7CF8C9185FFF2CF808185FFA4
:1007E000EDCFCE010E946903E9CFDF91CF9108954B
:1007F000FC0101900020E9F73197AF01481B590B2C
:10080000BC018DE391E00C94EB028F929F92AF922A
:10081000BF920F931F93CF93DF93CDB7DEB7A1970E
:100820000FB6F894DEBF0FBECDBF19A2423008F458
:100830004AE08E010F5D1F4F842E912CB12CA12C0C
:10084000A50194010E945A08E62FB901CA01EA30B5
:10085000F4F4E05DD801EE938D01232B242B252B9E
:1008600079F790E080E0109719F0CD010E94F8032D
:10087000A1960FB6F894DEBF0FBECDBFDF91CF912A
:100880001F910F91BF90AF909F908F900895E95C5A
:10089000E1CF1F920F920FB60F9211242F933F9327
:1008A0008F939F93AF93BF938091390190913A01B9
:1008B000A0913B01B0913C013091340123E0230F22
:1008C0002D3758F50196A11DB11D20933401809359
:1008D000390190933A01A0933B01B0933C01809180
:1008E000350190913601A0913701B0913801019600
:1008F000A11DB11D8093350190933601A09337015E
:10090000B0933801BF91AF919F918F913F912F91FB
:100910000F900FBE0F901F90189526E8230F029698
:10092000A11DB11DD2CF1F920F920FB60F921124AD
:100930002F933F934F935F936F937F938F939F93E7
:10094000AF93BF93EF93FF938DE391E00E94690310
:10095000FF91EF91BF91AF919F918F917F916F9197
:100960005F914F913F912F910F900FBE0F901F906D
:1009700018951F920F920FB60F9211242F938F93F9
:100980009F93EF93FF93E0914D01F0914E01808191
:10099000E0915301F091540182FD1BC09081809140
:1009A00056018F5F8F7320915701821741F0E091BC
:1009B0005601F0E0E35CFE4F958F80935601FF9166
:1009C000EF919F918F912F910F900FBE0F901F90DD
:1009D00018958081F4CFEDE3F1E01382128288EE66
:1009E00093E0A0E0B0E084839583A683B78384E09E
:1009F00091E09183808385EC90E09587848784ECF7
:100A000090E09787868780EC90E0918B808B81ECDB
:100A100090E0938B828B82EC90E0958B848B86ECBC
:100A200090E0978B868B118E128E138E148EACE015
:100A3000B2E089E090E011969C938E938BE090E079
:100A400013969C938E93129789E019968C9319971D
:100A50008BE01A968C931A97E1E1F1E0E4911B96F2
:100A6000EC931B97EDEFF0E0E4911C96EC931C9750
:100A700040E85EE360E070E051964D935D936D93C6
:100A80007C9354978FE090E090930B0280930A023E
:100A9000ECEFF1E080E090E4ACE1B6E48283938394
:100AA000A483B58380E090E0A8ECB1E486839783CB
:100AB000A087B18780E090EEA6E7B5E482879387B0
:100AC000A487B58781E190E091838083EAEDF1E02E
:100AD000118210821382128215821482178216826A
:100AE000118610861386128615861486168617863A
:100AF000108A118A128A138A148A158A168A178A0A
:100B0000108E118E128E138E148E158E168E178ED9
:100B100010A211A20895789484B5826084BD84B532
:100B2000816084BD85B5826085BD85B5816085BDE8
:100B300080916E00816080936E00109281008091A0
:100B40008100826080938100809181008160809328
:100B50008100809180008160809380008091B1004D
:100B600084608093B1008091B00081608093B00078
:100B700080917A00846080937A0080917A0082600C
:100B800080937A0080917A00816080937A008091CE
:100B90007A00806880937A001092C100E0914D0144
:100BA000F0914E0182E08083E0914901F0914A0189
:100BB0001082E0914B01F0914C018FEC80831092F8
:100BC0005501E0915101F091520186E08083E0915E
:100BD0004F01F0915001808180618083E0914F014D
:100BE000F0915001808188608083E0914F01F09105
:100BF0005001808180688083E0914F01F091500125
:100C000080818F7D808362E0809115020E94F100D7
:100C10002FB7F8948091390190913A01A0913B014E
:100C2000B0913C012FBF805D9740A109B10980932D
:100C3000190290931A02A0931B02B0931C0287E33F
:100C40008093220288248A9493E0992EA12CB12CBF
:100C5000C0E0D0E00E948E01882341F0809116020E
:100C60008C3009F466C038F48B3001F160E070E03C
:100C700080EC9FE743C085518230C0F7F0901202AC
:100C80006F2D70E0762F662766277F77809113029D
:100C9000682B90E080E00E949E092DEC3CEC4CEC2F
:100CA0005DE30E94A50AF7FE29C061C060911202AF
:100CB00070E090E080E00E949E096B017C01109141
:100CC000130217FF0AC0AC019B0160E070E080E8EE
:100CD0009FEB0E948B086B017C011F70612F70E0FD
:100CE00090E080E00E94A0092DEC3CEC4CEC5DE330
:100CF0000E94A50AA70196010E948C086093E80152
:100D00007093E9018093EA019093EB010E948E01B8
:100D1000882351F0809116028B3030F08D3048F1ED
:100D20008551823008F403C160E070E080EC9FE7F9
:100D30003CC010911202612F70E090E080E00E94B0
:100D40009E096B017C01609113026F7070E090E06E
:100D500080E00E94A0092DEC3CEC4CEC5DE30E948D
:100D6000A50AA70196010E948C0817FFC7CF9058CB
:100D7000C5CF6091110270E090E080E00E94A00970
:100D80002DEC3CEC4CEC5DE30E94A50A6B017C0170
:100D90006091100270E090E080E00E94A0099B0149
:100DA000AC01C701B6010E948C086093EC017093FE
:100DB000ED018093EE019093EF0180910A020E9471
:100DC00022019C01ACE9BFEF0E944C0BA5019401EC
:100DD0000E943B08CA01B9016C597F4F8F4F9F4F4A
:100DE0000E94A0096093F0017093F1018093F201D9
:100DF0009093F3018091FC010E942201C090FE01BA
:100E0000D090FF01E0900002F0900102BC01990F28
:100E1000880B990B0E94A0092AE038E240EA5BE3C4
:100E20000E94A50A9B01AC0160E070E080EA90E4BA
:100E30000E94FD0820E030E040E85FE30E948B085C
:100E4000A70196010E94A50AA70196010E94FD082C
:100E50000E945D0A2091060230910702409108022B
:100E6000509109020E94FD086B017C0123E333E9E4
:100E700048E853E4609102027091030280910402F9
:100E8000909105020E948C089B01AC0160E070E02B
:100E900080E89FE30E94FD08A70196010E948C084C
:100EA0009B01AC0160E070E080E89FE30E94FD08D8
:100EB00023E333E948E853E40E948B086093F00190
:100EC0007093F1018093F2019093F30182E191E03C
:100ED0000E94F803C090F001D090F101E090F2017F
:100EE000F090F301A7019601C701B6010E94120B11
:100EF000882379F180E291E00E94F8038CE291E08E
:100F00000E94F80381E391E00E94F80360ED77E02E
:100F100080E090E00E945C01209709F49BCE0E9443
:100F20005503882309F496CE0E94000093CE609169
:100F300010027091110276276727762790E080E0F3
:100F40000E949E092DEC3CEC4CEC5DE30E94A50A4E
:100F50002CCF26013701E89477F82FEF3FEF4FE7CA
:100F60005FE7C301B2010E94120B81110DC02FEF88
:100F70003FEF4FE75FE7C301B2010E94F808181680
:100F80001CF484E291E0B8CF2FEF3FEF4FE75FE42E
:100F9000C701B6010E94500A18161CF488E291E0BD
:100FA000ABCF2FEF3FEF4FE75FECC701B6010E94D9
:100FB000F80887FDF3CF20E030E0A901C701B601B2
:100FC0000E94F80887FF09C06DE28DE391E00E945E
:100FD0008B03F7FAF094F7F8F0942AE037ED43EA40
:100FE0005BE3C701B6010E948C082B013C010E9403
:100FF0006F096B017C010E949E099B01AC01C3013A
:10100000B2010E948B082B013C014AE0C701B601E6
:101010000E9405046EE28DE391E00E948B0320E0C4
:1010200030E040E251E4C301B2010E94A50A2B0165
:101030003C010E946F096B01F12CE12C4AE0C701D1
:10104000B6010E940504C701B6010E949E099B01DA
:10105000AC01C301B2010E948B0820E030E040E205
:1010600051E40E94A50A0E946F0990E080E04AE0E6
:101070000E94050443CF052E97FB1EF400940E94A6
:10108000520857FD07D00E945A0807FC03D04EF4BF
:101090000C94520850954095309521953F4F4F4FF5
:1010A0005F4F089590958095709561957F4F8F4F14
:1010B0009F4F0895A1E21A2EAA1BBB1BFD010DC074
:1010C000AA1FBB1FEE1FFF1FA217B307E407F507F8
:1010D00020F0A21BB30BE40BF50B661F771F881FD4
:1010E000991F1A9469F760957095809590959B016A
:1010F000AC01BD01CF010895A29FB001B39FC00113
:10110000A39F700D811D1124911DB29F700D811D33
:101110001124911D08955058BB27AA270E94A308A7
:101120000C94160A0E94080A38F00E940F0A20F058
:1011300039F49F3F19F426F40C94050A0EF4E09557
:10114000E7FB0C94FF09E92F0E94270A58F3BA170E
:10115000620773078407950720F079F4A6F50C94CD
:10116000490A0EF4E0950B2EBA2FA02D0B01B90100
:1011700090010C01CA01A0011124FF27591B99F00D
:10118000593F50F4503E68F11A16F040A22F232F19
:10119000342F4427585FF3CF469537952795A79569
:1011A000F0405395C9F77EF41F16BA0B620B730B10
:1011B000840BBAF09150A1F0FF0FBB1F661F771F81
:1011C000881FC2F70EC0BA0F621F731F841F48F436
:1011D000879577956795B795F7959E3F08F0B0CFBF
:1011E0009395880F08F09927EE0F979587950895A6
:1011F0000E94DB0908F481E008950E9411090C9413
:10120000160A0E940F0A58F00E94080A40F029F4BA
:101210005F3F29F00C94FF0951110C944A0A0C9479
:10122000050A0E94270A68F39923B1F3552391F325
:10123000951B550BBB27AA2762177307840738F045
:101240009F5F5F4F220F331F441FAA1FA9F335D0A2
:101250000E2E3AF0E0E832D091505040E695001C56
:10126000CAF72BD0FE2F29D0660F771F881FBB1F10
:10127000261737074807AB07B0E809F0BB0B802DEE
:10128000BF01FF2793585F4F3AF09E3F510578F01A
:101290000C94FF090C944A0A5F3FE4F3983ED4F3A0
:1012A000869577956795B795F7959F5FC9F7880FEE
:1012B000911D9695879597F90895E1E0660F771F40
:1012C000881FBB1F621773078407BA0720F0621BD1
:1012D000730B840BBA0BEE1F88F7E09508950E94FC
:1012E0002F0A88F09F5798F0B92F9927B751B0F07F
:1012F000E1F0660F771F881F991F1AF0BA95C9F79A
:1013000014C0B13091F00E94490AB1E008950C94E4
:10131000490A672F782F8827B85F39F0B93FCCF397
:10132000869577956795B395D9F73EF49095809516
:10133000709561957F4F8F4F9F4F0895E89409C036
:1013400097FB3EF490958095709561957F4F8F4FF8
:101350009F4F9923A9F0F92F96E9BB279395F6950E
:10136000879577956795B795F111F8CFFAF4BB0F8C
:1013700011F460FF1BC06F5F7F4F8F4F9F4F16C0F0
:10138000882311F096E911C0772321F09EE8872F7A
:10139000762F05C0662371F096E8862F70E060E036
:1013A0002AF09A95660F771F881FDAF7880F9695AF
:1013B000879597F90895990F0008550FAA0BE0E853
:1013C000FEEF16161706E807F907C0F01216130607
:1013D000E407F50798F0621B730B840B950B39F447
:1013E0000A2661F0232B242B252B21F408950A26AD
:1013F00009F4A140A6958FEF811D811D089597F9ED
:101400009F6780E870E060E008959FEF80EC0895AA
:1014100000240A94161617061806090608950024D3
:101420000A9412161306140605060895092E03944D
:10143000000C11F4882352F0BB0F40F4BF2B11F4C1
:1014400060FF04C06F5F7F4F8F4F9F4F089557FD20
:101450009058440F551F59F05F3F71F04795880F22
:1014600097FB991F61F09F3F79F0879508951216B9
:1014700013061406551FF2CF4695F1DF08C0161665
:1014800017061806991FF1CF869571056105089416
:101490000895E894BB2766277727CB0197F908952D
:1014A0000E94DB0908F48FEF089516F00C94170BD7
:1014B0000C94050A68940C94FF090E942F0AA8F363
:1014C0009923C1F3AEF3DF93CF931F930F93FF9252
:1014D000C92FDD2788232AF02197660F771F881FE1
:1014E000DAF720E030E040E85FEB9FE3883920F056
:1014F000803E38F021968F770E948C08E8E6F0E075
:1015000004C00E948C08E5E9F0E00E94250B8B01E5
:10151000BE01EC01FB2E6F5771097595771F880B83
:10152000990B0E94A00928E132E741E35FE30E94A2
:10153000B80AAF2D9801AE01FF900F911F91CF9186
:10154000DF910E94A3080C94160A0E94B80A0C941A
:10155000160A0E94080A38F00E940F0A20F095230C
:1015600011F00C94FF090C94050A11240C944A0AFA
:101570000E94270A70F3959FC1F3950F50E0551F05
:10158000629FF001729FBB27F00DB11D639FAA27D8
:10159000F00DB11DAA1F649F6627B00DA11D661F27
:1015A000829F2227B00DA11D621F739FB00DA11D48
:1015B000621F839FA00D611D221F749F3327A00D02
:1015C000611D231F849F600D211D822F762F6A2F9E
:1015D00011249F5750409AF0F1F088234AF0EE0F03
:1015E000FF1FBB1F661F771F881F91505040A9F730
:1015F0009E3F510580F00C94FF090C944A0A5F3F0E
:10160000E4F3983ED4F3869577956795B795F7956B
:10161000E7959F5FC1F7FE2B880F911D96958795E3
:1016200097F908950E94DB09880B990B08959F3F55
:1016300031F0915020F4879577956795B795880F8D
:10164000911D9695879597F90895DF93CF931F93F2
:101650000F93FF92EF92DF927B018C01689406C09A
:10166000DA2EEF010E94B80AFE01E894A5912591B7
:10167000359145915591A6F3EF010E94A308FE0113
:101680009701A801DA9469F7DF90EF90FF900F912E
:101690001F91CF91DF9108950E947C08332312F4AB
:1016A0008A1B9B0B0C94560B0E947C08B7FF089575
:1016B000821B930B0895EE0FFF1F0590F491E02D10
:1016C0000994F894FFCF000000008B03EB0218038D
:1016D000D803490327033B0354656D706572617439
:1016E0007572653A20006E616E00696E66006F76F5
:0A16F000660020C2B043000D0A009E
:107E0000112484B714BE81FFF0D085E080938100F7
:107E100082E08093C00088E18093C10086E0809377
:107E2000C20080E18093C4008EE0C9D0259A86E02C
:107E300020E33CEF91E0309385002093840096BBD3
:107E4000B09BFECF1D9AA8958150A9F7CC24DD24C4
:107E500088248394B5E0AB2EA1E19A2EF3E0BF2EE7
:107E6000A2D0813461F49FD0082FAFD0023811F036
:107E7000013811F484E001C083E08DD089C08234E0
:107E800011F484E103C0853419F485E0A6D080C0E4
:107E9000853579F488D0E82EFF2485D0082F10E0AE
:107EA000102F00270E291F29000F111F8ED06801E7
:107EB0006FC0863521F484E090D080E0DECF843638
:107EC00009F040C070D06FD0082F6DD080E0C81688
:107ED00080E7D80618F4F601B7BEE895C0E0D1E017
:107EE00062D089930C17E1F7F0E0CF16F0E7DF06D8
:107EF00018F0F601B7BEE89568D007B600FCFDCFD4
:107F0000A601A0E0B1E02C9130E011968C91119780
:107F100090E0982F8827822B932B1296FA010C0160
:107F200087BEE89511244E5F5F4FF1E0A038BF0790
:107F300051F7F601A7BEE89507B600FCFDCF97BE46
:107F4000E89526C08437B1F42ED02DD0F82E2BD052
:107F50003CD0F601EF2C8F010F5F1F4F84911BD097
:107F6000EA94F801C1F70894C11CD11CFA94CF0C13
:107F7000D11C0EC0853739F428D08EE10CD085E9AC
:107F80000AD08FE07ACF813511F488E018D01DD067
:107F900080E101D065CF982F8091C00085FFFCCF94
:107FA0009093C60008958091C00087FFFCCF809118
:107FB000C00084FD01C0A8958091C6000895E0E648
:107FC000F0E098E1908380830895EDDF803219F02E
:107FD00088E0F5DFFFCF84E1DECF1F93182FE3DFCA
:107FE0001150E9F7F2DF1F91089580E0E8DFEE27F6
:047FF000FF270994CA
:027FFE00040479
:00000001FF
